:100000000C943E000C945B000C945B000C945B0021
:100010000C945B000C945B000C945B000C945B00F4
:100020000C945B000C945B000C945B000C945B00E4
:100030000C945B000C945B000C945B000C945B00D4
:100040000C945B000C945B000C945B000C945B00C4
:100050000C9451010C94CC000C945B000C945B004C
:100060000C945B000C945B000C945B000C945B00A4
:100070000C945B000C945B000C945B0011241FBE7D
:10008000CFEFD0E1DEBFCDBF11E0A0E0B1E0E6E907
:10009000F4E002C005900D92AC31B107D9F721E030
:1000A000ACE1B1E001C01D92A634B207E1F70E94B5
:1000B000B4010C9449020C94000090931D018093AC
:1000C0001C0108959093C5008093C400E1ECF0E01A
:1000D00088E1808386E08093C20080818869808384
:1000E000089590911E019F5F9170209120019217B9
:1000F000E1F3E92FF0E0EF5DFE4F808390931E0166
:100100008091C10080628093C1000895CF93DF93F6
:10011000EC018991882319F00E947100FACFDF91D8
:10012000CF910895CF93DF93CDB7DEB761970FB628
:10013000F894DEBF0FBECDBFAB01BE016F5F7F4F36
:100140000E94DC01CE0101960E94860061960FB6E6
:10015000F894DEBF0FBECDBFDF91CF910895CF934E
:10016000DF93CDB7DEB7A1970FB6F894DEBF0FBE11
:10017000CDBF9A01AE014F5F5F4F0E94F201CE01E9
:1001800001960E948600A1960FB6F894DEBF0FBEBE
:10019000CDBFDF91CF9108951F920F920FB60F92AE
:1001A00011248F939F93EF93FF9390911E01809161
:1001B0002001981779F0809120018F5F81708093E2
:1001C0002001E0912001F0E0EF5DFE4F80818093FF
:1001D000C60005C08091C1008F7D8093C100FF9152
:1001E000EF919F918F910F900FBE0F901F901895D8
:1001F0009091230180912401981771F0809124013E
:100200008F5F8F7180932401E0912401F0E0EB5D1A
:10021000FE4F808190E008958FEF9FEF08950F9338
:100220001F93CF93DF938C0180911F01882389F066
:10023000C02FD12F0E94F800882311F08D3039F49F
:10024000188220911F01215020931F0102C0899321
:10025000F1CFC801DF91CF911F910F9108950F93B6
:100260001F93CF93DF938C0180911F018823A1F00E
:10027000C0911C01D0911D01209751F0C8010E942E
:100280000F01C801FE01DF91CF911F910F910994D9
:100290008091240180932301DF91CF911F910F91D1
:1002A00008951F920F920FB60F9211248F939F9370
:1002B000EF93FF938091C600E0912301EF5FEF7110
:1002C00090912401E91305C08091240180932301BA
:1002D00012C08A3081F08D3019F0811106C00BC038
:1002E00090911F019F5F90931F01E0932301F0E025
:1002F000EB5DFE4F8083FF91EF919F918F910F9067
:100300000FBE0F901F901895ECE7F0E0808180649D
:100310008083EAE7F0E08081876880830895EAE7D8
:10032000F0E0808180648083089580917A008670F7
:10033000B9F080917800909179008C3C21E092078F
:1003400050F0833D21E0920768F082519340059779
:1003500010F481E0089580917800909179000895DB
:1003600080E0089582E0089587E790E00E946200AF
:100370000E948401789480E091E00E9486000E94AF
:100380008F010E949501809345018823D1F36AE093
:1003900070E090E00E94920089E191E00E94860066
:1003A0000E948F012FEF8FE19CE12150804090400F
:1003B000E1F700C00000E5CF4532510520F442309E
:1003C00010F00C94E701FB011082CB010895BB27CC
:1003D0004A3031F4992322F4BDE2909581959F4FE4
:1003E0000C9420022532310520F4223010F00C94B8
:1003F000FD01FA011082CA010895BB27FA01A62F58
:100400006217710581059105330B30FB66F0AA2751
:10041000660F771F881F991FAA1FA21710F0A21B33
:1004200063953850A9F7A05DAA3308F0A95DA193A0
:1004300036F7B111B1931082CA010C943902BB276F
:10044000FB015527AA27880F991FAA1FA41710F090
:10045000A41B83955051B9F7A05DAA3308F0A95D9C
:10046000A193009779F7B111B1931192CB010C943C
:100470003902DC01FC01672F71917723E1F7329794
:1004800004C07C916D9370836291AE17BF07C8F36F
:060490000895F894FFCF6F
:100496002A2A2A2A2A2A2A205374617274202A2A8E
:0C04A6002A2A2A2A2A2A2A2A2A0D0A00B9
:00000001FF
