:100000000C94BB000C9469050C94B1050C94CC04C1
:100010000C94D8000C94D8000C94D8000C94D80000
:100020000C94D8000C94D8000C94D8000C94D800F0
:100030000C94D8000C94D8000C94D8000C94D800E0
:100040000C94E3040C94D8000C94D8000C94D800C1
:100050000C94A3020C941E020C94D8000C94D800AB
:100060000C94D8000C94D8000C94D8000C94D800B0
:100070000C94D8000C94D8000C94D80000407A104E
:10008000F35A00A0724E18090010A5D4E80000E849
:100090007648170000E40B54020000CA9A3B0000A7
:1000A00000E1F505000080969800000040420F0036
:1000B0000000A08601000000102700000000E803F7
:1000C000000000006400000000000A0000000000C2
:1000D0000100000000002C76D888DC674F0823DF81
:1000E000C1DFAE59E1B1B796E5E3E453C63AE65154
:1000F000997696E8E6C28426EB898C9B62ED407C7B
:100100006FFCEFBC9C9F40F2BAA56FA5F490055A16
:100110002AF75C936B6CF9676DC11BFCE0E40D473B
:10012000FEF520E6B500D0ED902E0300943577055E
:100130000080841E080000204E0A000000C80C3316
:100140003333330F986E12831141EF8D2114893BA5
:10015000E65516CFFEE6DB18D1844B381BF77C1D25
:10016000901DA4BBE424203284725E228100C9F178
:1001700024ECA1E53D2711241FBECFEFD0E1DEBF67
:10018000CDBF11E0A0E0B1E0EAE7F8E102C00590E0
:100190000D92A630B107D9F724E0A6E0B1E001C086
:1001A0001D92AB32B207E1F70E94B5060C943B0CEE
:1001B0000C940000ECE7F0E0808180648083EAE743
:1001C000F0E08081876880830895EAE7F0E080812D
:1001D00080648083089580917A00867009F496C0C7
:1001E0008091780090917900893921E09207C8F5D3
:1001F000823921E0920708F08CC08D379105D0F448
:100200008637910508F06DC08335910558F48C341C
:10021000910508F063C0C997079708F074C080E79C
:1002200090E0089585559109079708F06CC08AE51C
:1002300090E00895863F910560F48F3E910508F0A7
:1002400053C0825B9109069708F05DC087E890E093
:1002500008958B519140069708F055C084EB90E0CB
:100260000895853C22E09207D8F48C3B22E0920767
:1002700008F046C08D3522E0920758F4863522E01A
:100280009207A8F58C5C91400797E8F58DE290E025
:100290000895855792400797B0F581EE90E0089554
:1002A000813423E0920758F48A3323E0920710F553
:1002B00082519340059738F580E090E008958537A6
:1002C00023E0920700F18C3723E09207B0F08F5AB9
:1002D00093400797C0F48EE091E0089583E490E0A6
:1002E00008958DE990E008958AEC90E0089587EFF5
:1002F00090E0089584E291E008958BE391E0089501
:1003000081E591E008958EEF9FEF08958FEF9FEFC5
:10031000089586E190E00895909307018093060187
:1003200008959093C5008093C400E1ECF0E088E16B
:10033000808386E08093C2008081886980830895ED
:10034000909146019F5F9170209148019217E1F3CF
:10035000E92FF0E0E75BFE4F8083909346018091A8
:10036000C10080628093C1000895CF93DF93EC01B8
:100370008991882319F00E94A001FACFDF91CF91D3
:100380000895CF93DF93CDB7DEB761970FB6F8949A
:10039000DEBF0FBECDBFAB01BE016F5F7F4F0E94BE
:1003A0007809CE0101960E94B50161960FB6F894C6
:1003B000DEBF0FBECDBFDF91CF910895CF93DF9306
:1003C000CDB7DEB7A1970FB6F894DEBF0FBECDBF95
:1003D0009A01AE014F5F5F4F0E948E09CE010196D8
:1003E0000E94B501A1960FB6F894DEBF0FBECDBF37
:1003F000DF91CF9108950F931F93CF93DF93CDB7E4
:10040000DEB7A1970FB6F894DEBF0FBECDBF0E9436
:1004100066088E010F5F1F4F22E044E00E945709DB
:10042000C8010E94B501A1960FB6F894DEBF0FBEB9
:10043000CDBFDF91CF911F910F9108951F920F9221
:100440000FB60F9211248F939F93EF93FF93909188
:10045000460180914801981779F0809148018F5F9B
:10046000817080934801E0914801F0E0E75BFE4F26
:1004700080818093C60005C08091C1008F7D8093EC
:10048000C100FF91EF919F918F910F900FBE0F9040
:100490001F90189590914B0180914C01981771F025
:1004A00080914C018F5F8F7180934C01E0914C01E2
:1004B000F0E0E35BFE4F808190E008958FEF9FEFC7
:1004C00008950F931F93CF93DF938C018091470181
:1004D000882389F0C02FD12F0E944A02882311F06F
:1004E0008D3039F418822091470121502093470123
:1004F00002C08993F1CFC801DF91CF911F910F9175
:1005000008950F931F93CF93DF938C018091470140
:100510008823A1F0C0910601D0910701209751F0E6
:10052000C8010E946102C801FE01DF91CF911F91B5
:100530000F91099480914C0180934B01DF91CF91F1
:100540001F910F9108951F920F920FB60F921124D1
:100550008F939F93EF93FF938091C600E0914B019F
:10056000EF5FEF7190914C01E91305C080914C0150
:1005700080934B0112C08A3081F08D3019F08111C7
:1005800006C00BC0909147019F5F90934701E09395
:100590004B01F0E0E35BFE4F8083FF91EF919F9171
:1005A0008F910F900FBE0F901F90189584B1806BA4
:1005B00084B92C9A269886E58CBD08958EBD0DB41D
:1005C00007FEFDCF08950DB407FEFDCF8EB508954B
:1005D0008EBD0DB407FEFDCF8EB50895CF93DF938A
:1005E0001F92CDB7DEB72C9869830E94E80269811B
:1005F000862F0E94E8022C9A0F90DF91CF910895E8
:10060000CF93DF931F92CDB7DEB72C988F7369839A
:100610000E94DE026981862F0E94DE022C9A0F90D2
:10062000DF91CF9108958F7360E080640C94EE02A7
:10063000982F882339F081E090FD03C096958F5F55
:10064000FBCF089580E008951F93CF93DF931F920F
:10065000CDB7DEB769830E9413036981182F162373
:10066000662361F0862F0E941803212F30E081500D
:1006700002C0359527958A95E2F7122F812F0F90AA
:10068000DF91CF911F9108950F931F93CF93DF9325
:10069000182FD62F042F0E941303CD2FC095C823E7
:1006A000DD2369F08D2F0E941803402F8150082E02
:1006B00001C0440F0A94EAF76C2F642B02C06C2F20
:1006C000602B812F8F73DF91CF911F910F910C942D
:1006D000EE0266E98CE30E94000366E98DE30E9466
:1006E000000380E00E941303682F617C646280E055
:1006F0000E94000381E00E941303682F6078646405
:1007000081E00E94000382E00E941303682F60785A
:10071000606482E00E94000383E00E941303682F5C
:100720006F7183E00E94000360E088E00C94000396
:100730006FE387E00C94240341E061E080E00C94D7
:10074000440340E061E080E00E94440366E98DE3F9
:100750000E94EE028FEF95E30197F1F700C00000D1
:1007600008956FE083E00C94240341E060E283E0AD
:100770000C94440340E060E283E00C94440360E3A3
:1007800082E00C942403482F60E382E00E9444033B
:100790000C94BF0342E16EE380E00C9444034EE00E
:1007A0006EE380E00C94440360E781E00C94240342
:1007B000482F60E781E00E9444030C94D4036FE06B
:1007C00082E00C942403482F6FE082E00E944403EF
:1007D0000C94DF036FE081E00C942403482F6FE05A
:1007E00081E00E9444030C94EA0341E060E482E06B
:1007F0000E94440340E060E482E00E94440341E040
:1008000060E482E00C944403CF936FE186E00E94A1
:1008100024036FEF85E00E942403C82F6FEF84E06C
:100820000E9424032C2F30E0322F2227A901480FE9
:10083000511DCA01CF91089585B5846085BD089585
:1008400084B5826084BD85B5846085BD87E487BD3D
:10085000EEE6F0E080818260808308952FB7F894FF
:10086000609108017091090180910A0190910B013A
:100870002FBF0895AF92BF92CF92DF92EF92FF9277
:100880000F931F93CF93DF9340E060EC83E00E94CF
:10089000440341E060E888E00E944403A12CB12CAD
:1008A000CFEFDFE705E31CE04A2D6FE088E00E9410
:1008B00044038FEF93EB0197F1F700C00000109213
:1008C0000F0110920E010E942E046B017C0194E630
:1008D000C90ED11CE11CF11C0E942E046C197D096B
:1008E0008E099F0997FDF8CF2FB7F89480910E01DC
:1008F00090910F012FBF10920F0110920E017801FD
:10090000E81AF90AF7FE03C0F194E194F108EC1635
:10091000FD0614F07E0101C0BA2CA39480E1A81654
:1009200011F0E701C1CF9DE6E916F1043CF54B2D2E
:100930006FE088E00E9444038FEF93E20197F1F7A4
:1009400000C0000040E060E888E00E9444030E948C
:10095000A1036AE070E08B2D90E00E94C10181E06C
:1009600091E00E94B5016AE070E0C7010E94C101F8
:1009700083E091E00E94B50181E003C00E94A103E1
:1009800080E0DF91CF911F910F91FF90EF90DF906A
:10099000CF90BF90AF9008951F920F920FB60F9215
:1009A00011248F939F9380910E0190910F010196D6
:1009B00090930F0180930E019F918F910F900FBE26
:1009C0000F901F9018951F920F920FB60F9211243F
:1009D0008F939F93AF93BF938091080190910901EA
:1009E000A0910A01B0910B010196A11DB11D809348
:1009F000080190930901A0930A01B0930B01BF91E4
:100A0000AF919F918F910F900FBE0F901F901895EF
:100A10008F929F92AF92BF92CF92DF92EF92FF920E
:100A20000E942E04C0904201D0904301E090440106
:100A3000F09045016C197D098E099F090E94660896
:100A40004B015C0160913D0170E080E090E00E940C
:100A500066086B017C0120E030E04AE754E4C50100
:100A6000B4010E94CD079B01AC01C701B6010E94F1
:100A7000CD076B017C0110923D010E942E04609312
:100A8000420170934301809344019093450120E01B
:100A900030EC46E254E4C701B6010E94F4080E941B
:100AA0003A08CB01FF90EF90DF90CF90BF90AF90CE
:100AB0009F908F90089552985A9A53985B9A2298D3
:100AC000E9E6F0E080818F6280838DB387608DBB23
:100AD00008951F920F920FB60F9211240F931F9338
:100AE0002F933F934F935F936F937F938F939F9336
:100AF000AF93BF93EF93FF930E942E0400913E01AA
:100B000010913F012091400130914101601B710B18
:100B1000820B930B6B3071058105910578F00E9473
:100B20002E0460933E0170933F01809340019093A7
:100B3000410180913D018F5F80933D01FF91EF91D5
:100B4000BF91AF919F918F917F916F915F914F91E5
:100B50003F912F911F910F910F900FBE0F901F90FB
:100B600018951F920F920FB60F9211242F933F9357
:100B70004F935F936F937F938F939F93AF93BF93A5
:100B8000EF93FF930E942E046093F5037093F60396
:100B90008093F7039093F8038091F5039091F60307
:100BA000A091F703B091F8034091E5035091E6035B
:100BB0006091E7037091E803841B950BA60BB70BBC
:100BC0008093F9039093FA03A093FB03B093FC0383
:100BD0008091F9039091FA03A091FB03B091FC037B
:100BE0000B97A105B105C0F18091150190911601F7
:100BF000A0911701B09118018651954FAF4FBF4F8B
:100C00008093150190931601A0931701B0931801DA
:100C1000E091260484E0E89FF0011124EB50FD4FA1
:100C200080819181A281B3818651954FAF4FBF4F93
:100C300080839183A283B3838091F5039091F6031F
:100C4000A091F703B091F8038093E5039093E60336
:100C5000A093E703B093E803FF91EF91BF91AF91A9
:100C60009F918F917F916F915F914F913F912F91C4
:100C70000F900FBE0F901F901895099A0A980000C8
:100C8000099800000A9A0000099A0000000000007C
:100C9000099800000A980000099A089528E030E0B9
:100CA00040E850E090E0BA0168237923672B11F007
:100CB0000A9801C00A9A0998000000000000099AE9
:100CC00055954795215031092115310561F70A984D
:100CD0000895CF93DF931F92CDB7DEB789830E942B
:100CE0003D0689810E944E06099889B1099A20ED36
:100CF00037E04A9904C04A990EC084700DC0EFEFE6
:100D0000F1E13197F1F700C00000215031092115C0
:100D1000310579F7F0CF81E00F90DF91CF91089501
:100D2000482F0A9828E030E080E090E809984B9935
:100D3000892B099A96952150310921153105B1F772
:100D4000442311F00A9A01C00A9809980000000093
:100D50000000099A0A9808950A98099A89E0099862
:100D6000099A8150E1F70C943D0687E790E00E94D4
:100D700091010E945B050E94200478940E942E0439
:100D800060936D0170936E0180936F019093700179
:100D90000E942E0400916D0110916E0120916F014F
:100DA00030917001601B710B820B930B683E734096
:100DB0008105910568F383E00E946906809325040C
:100DC000882319F00E94AC06E3CF81E00E949006D0
:100DD00081E00E949006182F80E00E94900685E036
:100DE0000E946906809325048111ECCF81E00E9466
:100DF000900681E00E94900680E00E949006612F9C
:100E000070E080E090E00E9468082CEB34E743E952
:100E10005CE30E94F40820E030E040E252E40E94EB
:100E200068070E943508DC01CB016AE070E00E948F
:100E3000C101AECFBC01882777FD8095982F0E9415
:100E400068082CEB34E743E95CE30E94F40820E0F7
:100E500030E040E252E40E94680708958F929F922A
:100E6000AF92BF92CF92DF92EF92FF92BC018827A0
:100E700077FD8095982F0E9468086B017C0124E51E
:100E800033EE45E25DE30E94F40820E030E040E804
:100E900050E40E9468074B015C01A7019601C7015D
:100EA000B6010E94F40822EA37EE4BE356EB0E94AB
:100EB000F4089B01AC01C501B4010E946907FF90D1
:100EC000EF90DF90CF90BF90AF909F908F9008955C
:100ED0005058BB27AA270ED04DC13ED130F043D188
:100EE00020F031F49F3F11F41EF433C10EF4E0956D
:100EF000E7FB29C1E92F4FD180F3BA1762077307C7
:100F00008407950718F071F49EF567C10EF4E0951B
:100F10000B2EBA2FA02D0B01B90190010C01CA01B3
:100F2000A0011124FF27591B99F0593F50F4503E5E
:100F300068F11A16F040A22F232F342F4427585F50
:100F4000F3CF469537952795A795F0405395C9F768
:100F50007EF41F16BA0B620B730B840BBAF0915020
:100F6000A1F0FF0FBB1F661F771F881FC2F70EC0BF
:100F7000BA0F621F731F841F48F487957795679592
:100F8000B795F7959E3F08F0B3CF9395880F08F07B
:100F90009927EE0F9795879508950CD0EBC0E3D075
:100FA00040F0DAD030F021F45F3F19F0CCC051119D
:100FB00015C1CFC0F0D098F39923C9F35523B1F3ED
:100FC000951B550BBB27AA2762177307840738F0B8
:100FD0009F5F5F4F220F331F441FAA1FA9F333D017
:100FE0000E2E3AF0E0E830D091505040E695001CCB
:100FF000CAF729D0FE2F27D0660F771F881FBB1F87
:10100000261737074807AB07B0E809F0BB0B802D60
:10101000BF01FF2793585F4F2AF09E3F510568F0AC
:1010200092C0DCC05F3FECF3983EDCF38695779589
:101030006795B795F7959F5FC9F7880F911D9695AE
:10104000879597F90895E1E0660F771F881FBB1F0A
:10105000621773078407BA0720F0621B730B840BB7
:10106000BA0BEE1F88F7E095089504D06894B1118B
:10107000B5C0089598D088F09F5790F0B92F992760
:10108000B751A0F0D1F0660F771F881F991F1AF093
:10109000BA95C9F712C0B13081F09FD0B1E0089580
:1010A0009CC0672F782F8827B85F39F0B93FCCF301
:1010B000869577956795B395D9F73EF49095809589
:1010C000709561957F4F8F4F9F4F0895E89409C0A9
:1010D00097FB3EF490958095709561957F4F8F4F6B
:1010E0009F4F9923A9F0F92F96E9BB279395F69581
:1010F000879577956795B795F111F8CFFAF4BB0FFF
:1011000011F460FF1BC06F5F7F4F8F4F9F4F16C062
:10111000882311F096E911C0772321F09EE8872FEC
:10112000762F05C0662371F096E8862F70E060E0A8
:101130002AF09A95660F771F881FDAF7880F969521
:10114000879597F9089597F99F6780E870E060E0C8
:1011500008959FEF80EC089500240A941616170650
:1011600018060906089500240A9412161306140698
:1011700005060895092E0394000C11F4882352F0FB
:10118000BB0F40F4BF2B11F460FF04C06F5F7F4FB3
:101190008F4F9F4F089557FD9058440F551F59F09A
:1011A0005F3F71F04795880F97FB991F61F09F3F54
:1011B00079F087950895121613061406551FF2CF7D
:1011C0004695F1DF08C0161617061806991FF1CFCD
:1011D00086957105610508940895E894BB276627F4
:1011E0007727CB0197F908950BD0C4CFB5DF28F04E
:1011F000BADF18F0952309F0A6CFABCF1124EECFBC
:10120000CADFA0F3959FD1F3950F50E0551F629F61
:10121000F001729FBB27F00DB11D639FAA27F00D4F
:10122000B11DAA1F649F6627B00DA11D661F829F76
:101230002227B00DA11D621F739FB00DA11D621F5B
:10124000839FA00D611D221F749F3327A00D611D78
:10125000231F849F600D211D822F762F6A2F11245A
:101260009F5750408AF0E1F088234AF0EE0FFF1FAD
:10127000BB1F661F771F881F91505040A9F79E3FE4
:10128000510570F060CFAACF5F3FECF3983EDCF3DE
:10129000869577956795B795F795E7959F5FC1F721
:1012A000FE2B880F911D9695879597F90895EF92DB
:1012B0000F931F93CF93DF93E80147FF02C034E100
:1012C00001C034E0E42FFF27E7FDF095F7FF03C0EE
:1012D000F195E195F109E32E022F2E2FAE010E9428
:1012E000D509CE01DF91CF911F910F91EF90089515
:1012F0004532510520F4423010F00C948309FB0173
:101300001082CB010895BB274A3031F4992322F48F
:10131000BDE2909581959F4F0C94BC092532310513
:1013200020F4223010F00C949909FA011082CA01BD
:101330000895BB27FA01A62F621771058105910553
:10134000330B30FB66F0AA27660F771F881F991FA3
:10135000AA1FA21710F0A21B63953850A9F7A05D31
:10136000AA3308F0A95DA19336F7B111B1931082A9
:10137000CA010C942B0CBB27FB015527AA27880F09
:10138000991FAA1FA41710F0A41B83955051B9F7F9
:10139000A05DAA3308F0A95DA193009779F7B11178
:1013A000B1931192CB010C942B0C6F927F929F9270
:1013B000AF92BF92CF92DF92EF92FF920F931F9363
:1013C000CF93DF93CDB7DEB729970FB6F894DEBF82
:1013D0000FBECDBF6A01B22E102F0C3320F4FF24B4
:1013E000F394F00E02C04CE3F42E0F2D27E0AE0173
:1013F0004F5F5F4F0E94530B7981272F2970213057
:1014000031F0E1FC06C0E0FC06C060E005C06DE222
:1014100003C06BE201C060E2AE2DA07173FF36C065
:10142000662311F084E001C083E08B1510F4B81A34
:1014300001C0B12CA1110BC0F6018B2D90E28823C5
:1014400019F091938150FBCFCB0CD11CB12C6623AA
:1014500031F0F601608396012F5F3F4F6901C601AD
:101460000396E2FE05C02EE4F601208331E404C0B9
:101470002EE6F601208331E631832283FC012B2DF9
:1014800030E22223F1F131932150FBCF72FF40C0B3
:10149000662311F084E001C083E08B1510F4B81AC4
:1014A00001C0B12CA1110BC0F6018B2D90E2882355
:1014B00019F091938150FBCFCB0CD11CB12C66233A
:1014C00031F0F601608396012F5F3F4F6901C6013D
:1014D0000396E2FE07C029E4F60120832EE421836F
:1014E00026E406C029E6F60120832EE6218326E6BF
:1014F0002283FC012B2D30E2222319F0319321505D
:10150000FBCFFC01EB0DF11D10828EEF9FEFB7C0FA
:10151000B1E0611101C0B0E04B2F50E01816190680
:1015200024F49C012F5F3F4F02C021E030E0240FE4
:10153000351F112329F0412F50E04F5F5F4F02C04C
:1015400040E050E0420F531F2B2D30E0421753076D
:1015500014F4B41A01C0B12C2E2D287159F4F601DF
:101560002B2D30E2222319F031932150FBCFCB0CED
:10157000D11CB12CBB2331F0F601608396012F5FA3
:101580003F4F6901A1110BC0F6012B2D30E322233F
:1015900019F031932150FBCFCB0CD11CB12CF80E9C
:1015A0000A81372F3071A32E74FF03C0013309F471
:1015B000FA941F142CF42F2D293018F028E001C0C4
:1015C00021E0682F392F97FF02C060E030E0462FFE
:1015D000532F612C712C3EE2932EBC01621B7109CA
:1015E0009B01DC01A41BB50BE1E0F0E0EC0FFD1F5B
:1015F000AE0FBF1FE12EF12CF194E194F1084F3FA3
:10160000FFEF5F0731F4F6019082B6016F5F7F4F05
:101610006B01841795074CF02417350734F4BD018E
:10162000660D771DFB01118101C010E34150510986
:10163000FFEF6F1A7F0AB6016F5F7F4F4E155F0590
:1016400024F0F60110836B01DACF4817590739F4FB
:10165000063320F4053319F4A11001C011E3F6019B
:101660001083FB018B2D90E2882319F09193815018
:10167000FBCFFB01EB0DF11D108280E090E029967D
:101680000FB6F894DEBF0FBECDBFDF91CF911F9193
:101690000F91FF90EF90DF90CF90BF90AF909F9011
:1016A0007F906F900895283008F027E03327DA0103
:1016B000990F311D87FD916000966105710539F420
:1016C00032602E5F3D9330E32A95E1F708959F3F06
:1016D00030F080387105610509F03C5F3C5F3D9357
:1016E000913008F08068911DDF93CF931F930F9383
:1016F000FF92EF92192F987F9695E92F96959695E0
:10170000E90FFF27EA52FF4F99273327EE24FF24E2
:10171000A701E70105900894079428F4360FE71E07
:10172000F81E491F511D660F771F881F991F0694C9
:10173000A1F70590079428F4E70EF81E491F561FDD
:10174000C11D770F881F991F661F0694A1F705908A
:10175000079428F4F80E491F561FC71FD11D880F84
:10176000991F661F771F0694A1F70590079420F430
:10177000490F561FC71FD81F990F661F771F881F55
:101780000694A9F784911095177041F0D695C795E6
:1017900057954795F794E7941A95C1F7ECE7F0E071
:1017A00068941590159135916591959105907FE21A
:1017B0007395E118F10A430B560BC90BD009C0F71A
:1017C000E10CF11E431F561FC91FD01D7EF470335C
:1017D00011F48A95E6CFE894015030F0080F0AF42E
:1017E0000027021708F4202F2395022F7A3328F0C0
:1017F00079E37D932A95E9F710C07D932A9589F6C0
:10180000069497956795379517951794E118F10AFF
:10181000430B560BC90BD00998F023957E91739515
:101820007A3308F070E37C932013B8F77E917061EF
:101830007D9330F0839571E37D9370E32A95E1F712
:101840001124EF90FF900F911F91CF91DF91992775
:1018500087FD90950895DC01FC01672F7191772336
:10186000E1F7329704C07C916D9370836291AE175B
:0A187000BF07C8F30895F894FFCFF6
:06187A006320000D0A00CE
:0400000300000838B9
:00000001FF
