:100000000C94BB000C94A9080C94F1080C94CC043B
:100010000C94D8000C94D8000C94D8000C94D80000
:100020000C94D8000C94D8000C94D8000C94D800F0
:100030000C94D8000C947A080C94D8000C94D80036
:100040000C94E3040C94D8000C94D8000C94D800C1
:100050000C94A3020C941E020C94D8000C94D800AB
:100060000C94D8000C94D8000C94D8000C94D800B0
:100070000C94D8000C94D8000C94D80000407A104E
:10008000F35A00A0724E18090010A5D4E80000E849
:100090007648170000E40B54020000CA9A3B0000A7
:1000A00000E1F505000080969800000040420F0036
:1000B0000000A08601000000102700000000E803F7
:1000C000000000006400000000000A0000000000C2
:1000D0000100000000002C76D888DC674F0823DF81
:1000E000C1DFAE59E1B1B796E5E3E453C63AE65154
:1000F000997696E8E6C28426EB898C9B62ED407C7B
:100100006FFCEFBC9C9F40F2BAA56FA5F490055A16
:100110002AF75C936B6CF9676DC11BFCE0E40D473B
:10012000FEF520E6B500D0ED902E0300943577055E
:100130000080841E080000204E0A000000C80C3316
:100140003333330F986E12831141EF8D2114893BA5
:10015000E65516CFFEE6DB18D1844B381BF77C1D25
:10016000901DA4BBE424203284725E228100C9F178
:1001700024ECA1E53D2711241FBECFEFD0E1DEBF67
:10018000CDBF11E0A0E0B1E0EEE7FDE102C00590D7
:100190000D92AE31B107D9F724E0AEE1B1E001C074
:1001A0001D92A334B207E1F70E94B7070C94BD0E6D
:1001B0000C940000ECE7F0E0808180648083EAE743
:1001C000F0E08081876880830895EAE7F0E080812D
:1001D00080648083089580917A00867009F496C0C7
:1001E0008091780090917900893921E09207C8F5D3
:1001F000823921E0920708F08CC08D379105D0F448
:100200008637910508F06DC08335910558F48C341C
:10021000910508F063C0C997079708F074C080E79C
:1002200090E0089585559109079708F06CC08AE51C
:1002300090E00895863F910560F48F3E910508F0A7
:1002400053C0825B9109069708F05DC087E890E093
:1002500008958B519140069708F055C084EB90E0CB
:100260000895853C22E09207D8F48C3B22E0920767
:1002700008F046C08D3522E0920758F4863522E01A
:100280009207A8F58C5C91400797E8F58DE290E025
:100290000895855792400797B0F581EE90E0089554
:1002A000813423E0920758F48A3323E0920710F553
:1002B00082519340059738F580E090E008958537A6
:1002C00023E0920700F18C3723E09207B0F08F5AB9
:1002D00093400797C0F48EE091E0089583E490E0A6
:1002E00008958DE990E008958AEC90E0089587EFF5
:1002F00090E0089584E291E008958BE391E0089501
:1003000081E591E008958EEF9FEF08958FEF9FEFC5
:10031000089586E190E0089590931F0180931E0157
:1003200008959093C5008093C400E1ECF0E088E16B
:10033000808386E08093C2008081886980830895ED
:1003400090915F019F5F9170209161019217E1F39D
:10035000E92FF0E0EE59FE4F808390935F0180918A
:10036000C10080628093C1000895CF93DF93EC01B8
:100370008991882319F00E94A001FACFDF91CF91D3
:100380000895CF93DF93CDB7DEB761970FB6F8949A
:10039000DEBF0FBECDBFAB01BE016F5F7F4F0E94BE
:1003A000FA0BCE0101960E94B50161960FB6F89442
:1003B000DEBF0FBECDBFDF91CF910895CF93DF9306
:1003C000CDB7DEB7A1970FB6F894DEBF0FBECDBF95
:1003D0009A01AE014F5F5F4F0E94100CCE01019653
:1003E0000E94B501A1960FB6F894DEBF0FBECDBF37
:1003F000DF91CF9108950F931F93CF93DF93CDB7E4
:10040000DEB7A1970FB6F894DEBF0FBECDBF0E9436
:10041000C00A8E010F5F1F4F22E044E00E94D90BFB
:10042000C8010E94B501A1960FB6F894DEBF0FBEB9
:10043000CDBFDF91CF911F910F9108951F920F9221
:100440000FB60F9211248F939F93EF93FF93909188
:100450005F0180916101981779F0809161018F5F50
:10046000817080936101E0916101F0E0EE59FE4FEF
:1004700080818093C60005C08091C1008F7D8093EC
:10048000C100FF91EF919F918F910F900FBE0F9040
:100490001F9018959091640180916501981771F0F3
:1004A000809165018F5F8F7180936501E091650197
:1004B000F0E0EA59FE4F808190E008958FEF9FEFC2
:1004C00008950F931F93CF93DF938C018091600168
:1004D000882389F0C02FD12F0E944A02882311F06F
:1004E0008D3039F4188220916001215020936001F1
:1004F00002C08993F1CFC801DF91CF911F910F9175
:1005000008950F931F93CF93DF938C018091600127
:100510008823A1F0C0911E01D0911F01209751F0B6
:10052000C8010E946102C801FE01DF91CF911F91B5
:100530000F9109948091650180936401DF91CF91BF
:100540001F910F9108951F920F920FB60F921124D1
:100550008F939F93EF93FF938091C600E091640186
:10056000EF5FEF7190916501E91305C0809165011E
:100570008093640112C08A3081F08D3019F08111AE
:1005800006C00BC0909160019F5F90936001E09363
:100590006401F0E0EA59FE4F8083FF91EF919F9153
:1005A0008F910F900FBE0F901F90189584B1806BA4
:1005B00084B92C9A269886E58CBD08958EBD0DB41D
:1005C00007FEFDCF08950DB407FEFDCF8EB508954B
:1005D0008EBD0DB407FEFDCF8EB50895CF93DF938A
:1005E0001F92CDB7DEB72C9869830E94E80269811B
:1005F000862F0E94E8022C9A0F90DF91CF910895E8
:10060000CF93DF931F92CDB7DEB72C988F7369839A
:100610000E94DE026981862F0E94DE022C9A0F90D2
:10062000DF91CF9108958F7360E080640C94EE02A7
:10063000982F882339F081E090FD03C096958F5F55
:10064000FBCF089580E008951F93CF93DF931F920F
:10065000CDB7DEB769830E9413036981182F162373
:10066000662361F0862F0E941803212F30E081500D
:1006700002C0359527958A95E2F7122F812F0F90AA
:10068000DF91CF911F9108950F931F93CF93DF9325
:10069000182FD62F042F0E941303CD2FC095C823E7
:1006A000DD2369F08D2F0E941803402F8150082E02
:1006B00001C0440F0A94EAF76C2F642B02C06C2F20
:1006C000602B812F8F73DF91CF911F910F910C942D
:1006D000EE0266E98CE30E94000366E98DE30E9466
:1006E000000380E00E941303682F617C646280E055
:1006F0000E94000381E00E941303682F6078646405
:1007000081E00E94000382E00E941303682F60785A
:10071000606482E00E94000383E00E941303682F5C
:100720006F7183E00E94000360E088E00C94000396
:100730006FE387E00C94240341E061E080E00C94D7
:10074000440340E061E080E00E94440366E98DE3F9
:100750000E94EE028FEF95E30197F1F700C00000D1
:1007600008956FE083E00C94240341E060E283E0AD
:100770000C94440340E060E283E00C94440360E3A3
:1007800082E00C942403482F60E382E00E9444033B
:100790000C94BF0342E16EE380E00C9444034EE00E
:1007A0006EE380E00C94440360E781E00C94240342
:1007B000482F60E781E00E9444030C94D4036FE06B
:1007C00082E00C942403482F6FE082E00E944403EF
:1007D0000C94DF036FE081E00C942403482F6FE05A
:1007E00081E00E9444030C94EA0341E060E482E06B
:1007F0000E94440340E060E482E00E94440341E040
:1008000060E482E00C944403CF936FE186E00E94A1
:1008100024036FEF85E00E942403C82F6FEF84E06C
:100820000E9424032C2F30E0322F2227A901480FE9
:10083000511DCA01CF91089585B5846085BD089585
:1008400084B5826084BD85B5846085BD87E487BD3D
:10085000EEE6F0E080818260808308952FB7F894FF
:1008600060912001709121018091220190912301DA
:100870002FBF0895AF92BF92CF92DF92EF92FF9277
:100880000F931F93CF93DF9340E060EC83E00E94CF
:10089000440341E060E888E00E944403A12CB12CAD
:1008A000CFEFDFE705E31CE04A2D6FE088E00E9410
:1008B00044038FEF93EB0197F1F700C00000109213
:1008C0002701109226010E942E046B017C0194E600
:1008D000C90ED11CE11CF11C0E942E046C197D096B
:1008E0008E099F0997FDF8CF2FB7F89480912601C4
:1008F000909127012FBF10922701109226017801B5
:10090000E81AF90AF7FE03C0F194E194F108EC1635
:10091000FD0614F07E0101C0BA2CA39480E1A81654
:1009200011F0E701C1CF9DE6E916F1043CF54B2D2E
:100930006FE088E00E9444038FEF93E20197F1F7A4
:1009400000C0000040E060E888E00E9444030E948C
:10095000A1036AE070E08B2D90E00E94C10181E06C
:1009600091E00E94B5016AE070E0C7010E94C101F8
:1009700083E091E00E94B50181E003C00E94A103E1
:1009800080E0DF91CF911F910F91FF90EF90DF906A
:10099000CF90BF90AF9008951F920F920FB60F9215
:1009A00011248F939F9380912601909127010196A6
:1009B00090932701809326019F918F910F900FBEF6
:1009C0000F901F9018951F920F920FB60F9211243F
:1009D0008F939F93AF93BF938091200190912101BA
:1009E000A0912201B09123010196A11DB11D809318
:1009F000200190932101A0932201B0932301BF9184
:100A0000AF919F918F910F900FBE0F901F901895EF
:100A1000099A0A9A0000129A11988FE18A95F1F7C3
:100A2000119A8FE18A95F1F712988FE18A95F1F783
:100A300011988DE38A95F1F700C0119A8FE18A959C
:100A4000F1F7129A8FE18A95F1F7119808951092B3
:100A50002801089590912801882319F097FF03C079
:100A600006C097FF04C0990F81E3982701C0990F32
:100A70009093280108950F931F93CF93DF93082F2E
:100A80000A9A0000C8E0D0E010E8812F802311F01E
:100A9000129A01C01298119A9FE19A95F1F7119854
:100AA0009FE19A95F1F70E942A05169521972097C4
:100AB00061F7129A0A98129A8FE18A95F1F7119AC2
:100AC0009FE19A95F1F7119880B18470DF91CF91F1
:100AD0001F910F9108950F931F93CF93DF930A9A5D
:100AE0000000129A0A98129A8FE18A95F1F7C8E0ED
:100AF000D0E000E810E0119A8FE18A95F1F7029BAF
:100B000003C0102B81E001C080E00E942A051198EB
:100B10008FE18A95F1F706952197209761F70A9A58
:100B2000000012988FE18A95F1F7119A8FE18A956A
:100B3000F1F711988FE18A95F1F7129A812FDF91E1
:100B4000CF911F910F91089510922901099A0A9A45
:100B50000000129A119889E0119A9FE19A95F1F795
:100B600011989FE19A95F1F78150B1F70C9408051F
:100B7000109229010E94A4058EE10E943B058093FA
:100B8000290108950F931F93CF93DF93EC018B01FD
:100B9000109229010E94080587E00E943B0580937E
:100BA000290181E00E946B05888380E00E946B052B
:100BB000F801808380912901DF91CF911F910F91DE
:100BC00008951F93CF93DF93EC01109229010E94A7
:100BD00008051091290186E00E943B05180F10932B
:100BE000290188810E943B05810F80932901DF91B3
:100BF000CF911F910895CF92DF92FF920F931F9391
:100C0000CF93DF931F92CDB7DEB76C018B011092AB
:100C100029011092280149830E9408054981442333
:100C200031F0413061F4F090290185E003C0F0908B
:100C3000290183E00E943B058F0D809329010A98CA
:100C4000129A80E0029903C0843698F00DC08F5F3D
:100C5000853651F02FEF3FE191E021503040904038
:100C6000E1F700C00000EECF809129018F5F8093F3
:100C7000290181E00E946B05D60111968C9381E0D9
:100C80000E946B05F60180832091280130E080E00E
:100C900090E0F12C47E050E061E070E0F901082EAF
:100CA00002C0F595E7950A94E2F7E0FF0AC0FA0161
:100CB000E81BF90BDB0102C0AA0FBB1FEA95E2F7A4
:100CC000FA0E01968830910549F780E00E946B0585
:100CD000F8018083F81629F0809129018F5F8093B5
:100CE0002901809129010F90DF91CF911F910F91E0
:100CF000FF90DF90CF9008952F923F924F925F9296
:100D00006F927F928F929F92AF92BF92CF92DF921B
:100D1000EF92FF920F931F93CF93DF9300D000D0F9
:100D2000CDB7DEB78C011B01FC01C080D180E28011
:100D3000F3802AE037ED43E25CE3FB0160817181DF
:100D4000828193810E94760B20E030E040E252E401
:100D50000E94BE092B013C0120E030E048EC51E448
:100D60000E94BE094B015C012CEA35EC47EA58E3CE
:100D7000C701B6010E94760B2AE037ED43E25CE33F
:100D80000E94BF099B01AC01C501B4010E94760B12
:100D90004B015C0122EA37EE4BE356EBC701B6018B
:100DA0000E94760BA70196010E94760B69837A83D5
:100DB0008B839C8324E533EE45E25DE3C701B601F6
:100DC0000E94760B9B01AC0169817A818B819C81A9
:100DD0000E94BF0920E030E040E850E40E94BE09D4
:100DE0009B01AC01C501B4010E94BF096B017C01EC
:100DF00020E030E048EC52E40E94720B181694F0A8
:100E00002DEC3CEC4CEC5DE3C701B6010E94230ADB
:100E100087FF0EC08DECC82E8CECD82EED2C8DE308
:100E2000F82E06C0C12CD12C98ECE92E92E4F92EB4
:100E3000F1014082518262827382F801C082D182C4
:100E4000E282F3820F900F900F900F90DF91CF917D
:100E50001F910F91FF90EF90DF90CF90BF90AF90D8
:100E60009F908F907F906F905F904F903F902F90CA
:100E7000089588EE93E0EFEFF1E13197F1F700C0CC
:100E8000000001970097B9F708958F929F92AF9253
:100E9000BF92CF92DF92EF92FF920E942E04C090F9
:100EA0005B01D0905C01E0905D01F0905E016C19F7
:100EB0007D098E099F090E94C00A4B015C01609167
:100EC000560170E080E090E00E94C00A6B017C0156
:100ED00020E030E04AE754E4C501B4010E94270A4B
:100EE0009B01AC01C701B6010E94270A6B017C017E
:100EF000109256010E942E0460935B0170935C0176
:100F000080935D0190935E0120E030EC46E254E472
:100F1000C701B6010E94760B0E94940ACB01FF9094
:100F2000EF90DF90CF90BF90AF909F908F900895FB
:100F300052985A9A53985B9A2298E9E6F0E0808199
:100F40008F6280838DB387608DBB0895E1E8F0E008
:100F500080818D60808383EB90E090938900809303
:100F60008800EFE6F0E08081826080830895CF936F
:100F7000DF93CDB7DEB729970FB6F894DEBF0FBE6B
:100F8000CDBF87E790E00E9491010E9498070E94E0
:100F9000A60778940E942E046093860170938701BF
:100FA000809388019093890110E08AE0C82ED12CAB
:100FB000E12CF12C0E942E048090860190908701F4
:100FC000A0908801B0908901681979098A099B0964
:100FD000683E73408105910568F386E091E00E94C8
:100FE000B5018091860190918701A0918801B0910F
:100FF000890188519C4FAF4FBF4F809386019093DA
:101000008701A0938801B09389010E94A40540E064
:10101000BE01675F7F4FCE0101960E94FB05B82E8F
:1010200041E0BE01675F7F4FCE0105960E94FB0540
:101030008B0D180F49F00E94A4058BE091E00E94EF
:10104000B5010E943907B6CF6D817E818F81988569
:101050000E94C20A6D837E838F83988769817A811B
:101060008B819C810E94C20A69837A838B839C83D3
:10107000BE016F5F7F4FCE0105960E947C0620E087
:1010800030E040E251E469817A818B819C810E9449
:10109000760B0E948F0A69837A838B839C8386E117
:1010A00091E00E94B50183E091E00E94B501898141
:1010B0009A81AB81BC81B7FF04C08CE191E00E94B2
:1010C000B50169817A8177FF03C0719561957109D6
:1010D000882777FD8095982F69837A838B839C83FB
:1010E000A70196010E947D096AE070E0C9010E9493
:1010F000C10160CF1F920F920FB60F9211248F93F0
:101100009F9380913C0490913D04009729F00197B2
:1011100090933D0480933C0480913A0490913B0469
:10112000009729F0019790933B0480933A048091B3
:10113000000490910104009729F001979093010415
:10114000809300049F918F910F900FBE0F901F907E
:1011500018951F920F920FB60F9211240F931F93A1
:101160002F933F934F935F936F937F938F939F93AF
:10117000AF93BF93EF93FF930E942E04009157010A
:10118000109158012091590130915A01601B710B47
:10119000820B930B6B3071058105910578F00E94ED
:1011A0002E046093570170935801809359019093D6
:1011B0005A01809156018F5F80935601FF91EF9104
:1011C000BF91AF919F918F917F916F915F914F915F
:1011D0003F912F911F910F910F900FBE0F901F9075
:1011E00018951F920F920FB60F9211242F933F93D1
:1011F0004F935F936F937F938F939F93AF93BF931F
:10120000EF93FF930E942E0460930A0470930B04E3
:1012100080930C0490930D0480910A0490910B0428
:10122000A0910C04B0910D044091FC035091FD037A
:101230006091FE037091FF03841B950BA60BB70B07
:1012400080930E0490930F04A0931004B0931104A4
:1012500080910E0490910F04A0911004B09111049C
:101260000B97A105B105C0F180912E0190912F013E
:10127000A0913001B09131018651954FAF4FBF4FD2
:1012800080932E0190932F01A0933001B0933101F0
:10129000E0913E0484E0E89FF0011124E45FFC4FFC
:1012A00080819181A281B3818651954FAF4FBF4F0D
:1012B00080839183A283B38380910A0490910B046D
:1012C000A0910C04B0910D048093FC039093FD0356
:1012D000A093FE03B093FF03FF91EF91BF91AF91F5
:1012E0009F918F917F916F915F914F913F912F913E
:1012F0000F900FBE0F901F901895052E97FB1EF4B0
:1013000000940E94940957FD07D00E949C0907FC95
:1013100003D04EF40C949409509540953095219546
:101320003F4F4F4F5F4F0895909580957095619511
:101330007F4F8F4F9F4F0895A1E21A2EAA1BBB1B10
:10134000FD010DC0AA1FBB1FEE1FFF1FA217B30791
:10135000E407F50720F0A21BB30BE40BF50B661FA7
:10136000771F881F991F1A9469F76095709580956B
:1013700090959B01AC01BD01CF0108955058BB274A
:10138000AA270ED075C166D130F06BD120F031F4B0
:101390009F3F11F41EF45BC10EF4E095E7FB51C1D1
:1013A000E92F77D180F3BA1762077307840795078F
:1013B00018F071F49EF58FC10EF4E0950B2EBA2F44
:1013C000A02D0B01B90190010C01CA01A00111244B
:1013D000FF27591B99F0593F50F4503E68F11A16F7
:1013E000F040A22F232F342F4427585FF3CF469588
:1013F00037952795A795F0405395C9F77EF41F16AA
:10140000BA0B620B730B840BBAF09150A1F0FF0F73
:10141000BB1F661F771F881FC2F70EC0BA0F621F5F
:10142000731F841F48F4879577956795B795F7954F
:101430009E3F08F0B3CF9395880F08F09927EE0FE1
:10144000979587950895D9D008F481E008950CD038
:101450000FC107D140F0FED030F021F45F3F19F00A
:10146000F0C0511139C1F3C014D198F39923C9F3D5
:101470005523B1F3951B550BBB27AA27621773079A
:10148000840738F09F5F5F4F220F331F441FAA1F4E
:10149000A9F333D00E2E3AF0E0E830D0915050400E
:1014A000E695001CCAF729D0FE2F27D0660F771FBC
:1014B000881FBB1F261737074807AB07B0E809F09E
:1014C000BB0B802DBF01FF2793585F4F2AF09E3F33
:1014D000510568F0B6C000C15F3FECF3983EDCF305
:1014E000869577956795B795F7959F5FC9F7880FAC
:1014F000911D9695879597F90895E1E0660F771FFE
:10150000881FBB1F621773078407BA0720F0621B8E
:10151000730B840BBA0BEE1F88F7E095089504D087
:101520006894B111D9C00895BCD088F09F5790F04D
:10153000B92F9927B751A0F0D1F0660F771F881FF8
:10154000991F1AF0BA95C9F712C0B13081F0C3D013
:10155000B1E00895C0C0672F782F8827B85F39F0B1
:10156000B93FCCF3869577956795B395D9F73EF457
:1015700090958095709561957F4F8F4F9F4F0895FF
:10158000E89409C097FB3EF490958095709561951D
:101590007F4F8F4F9F4F9923A9F0F92F96E9BB27D3
:1015A0009395F695879577956795B795F111F8CF4F
:1015B000FAF4BB0F11F460FF1BC06F5F7F4F8F4FBA
:1015C0009F4F16C0882311F096E911C0772321F0B0
:1015D0009EE8872F762F05C0662371F096E8862F48
:1015E00070E060E02AF09A95660F771F881FDAF79F
:1015F000880F9695879597F90895990F0008550FCC
:10160000AA0BE0E8FEEF16161706E807F907C0F088
:1016100012161306E407F50798F0621B730B840B90
:10162000950B39F40A2661F0232B242B252B21F46A
:1016300008950A2609F4A140A6958FEF811D811D0A
:10164000089597F99F6780E870E060E008959FEF44
:1016500080EC089500240A94161617061806090649
:10166000089500240A941216130614060506089518
:10167000092E0394000C11F4882352F0BB0F40F4A0
:10168000BF2B11F460FF04C06F5F7F4F8F4F9F4FE0
:10169000089557FD9058440F551F59F05F3F71F062
:1016A0004795880F97FB991F61F09F3F79F08795C9
:1016B0000895121613061406551FF2CF4695F1DF52
:1016C00008C0161617061806991FF1CF86957105E2
:1016D000610508940895E894BB2766277727CB0116
:1016E00097F908958ADF08F48FEF08950BD0C0CFE3
:1016F000B1DF28F0B6DF18F0952309F0A2CFA7CF0D
:101700001124EACFC6DFA0F3959FD1F3950F50E0E7
:10171000551F629FF001729FBB27F00DB11D639FA3
:10172000AA27F00DB11DAA1F649F6627B00DA11D49
:10173000661F829F2227B00DA11D621F739FB00DEF
:10174000A11D621F839FA00D611D221F749F33275F
:10175000A00D611D231F849F600D211D822F762FF8
:101760006A2F11249F5750408AF0E1F088234AF0F5
:10177000EE0FFF1FBB1F661F771F881F9150504041
:10178000A9F79E3F510570F05CCFA6CF5F3FECF309
:10179000983EDCF3869577956795B795F795E7952D
:1017A0009F5FC1F7FE2B880F911D9695879597F93E
:1017B0000895EF920F931F93CF93DF93E80147FFB4
:1017C00002C034E101C034E0E42FFF27E7FDF095CB
:1017D000F7FF03C0F195E195F109E32E022F2E2FBB
:1017E000AE010E94570CCE01DF91CF911F910F9156
:1017F000EF9008954532510520F4423010F00C94DA
:10180000050CFB011082CB010895BB274A3031F44F
:10181000992322F4BDE2909581959F4F0C943E0C44
:101820002532310520F4223010F00C941B0CFA0103
:101830001082CA010895BB27FA01A62F621771050D
:1018400081059105330B30FB66F0AA27660F771FE1
:10185000881F991FAA1FA21710F0A21B639538506A
:10186000A9F7A05DAA3308F0A95DA19336F7B111DD
:10187000B1931082CA010C94AD0EBB27FB01552712
:10188000AA27880F991FAA1FA41710F0A41B8395DD
:101890005051B9F7A05DAA3308F0A95DA193009754
:1018A00079F7B111B1931192CB010C94AD0E6F92F7
:1018B0007F929F92AF92BF92CF92DF92EF92FF9270
:1018C0000F931F93CF93DF93CDB7DEB729970FB652
:1018D000F894DEBF0FBECDBF6A01B22E102F0C33BD
:1018E00020F4FF24F394F00E02C04CE3F42E0F2DED
:1018F00027E0AE014F5F5F4F0E94D50D7981272F02
:101900002970213031F0E1FC06C0E0FC06C060E047
:1019100005C06DE203C06BE201C060E2AE2DA071B4
:1019200073FF36C0662311F084E001C083E08B159D
:1019300010F4B81A01C0B12CA1110BC0F6018B2D07
:1019400090E2882319F091938150FBCFCB0CD11CEE
:10195000B12C662331F0F601608396012F5F3F4F73
:101960006901C6010396E2FE05C02EE4F60120835C
:1019700031E404C02EE6F601208331E63183228370
:10198000FC012B2D30E22223F1F131932150FBCFCA
:1019900072FF40C0662311F084E001C083E08B1524
:1019A00010F4B81A01C0B12CA1110BC0F6018B2D97
:1019B00090E2882319F091938150FBCFCB0CD11C7E
:1019C000B12C662331F0F601608396012F5F3F4F03
:1019D0006901C6010396E2FE07C029E4F6012083EF
:1019E0002EE4218326E406C029E6F60120832EE6B4
:1019F000218326E62283FC012B2D30E2222319F0DD
:101A000031932150FBCFFC01EB0DF11D10828EEFC5
:101A10009FEFB7C0B1E0611101C0B0E04B2F50E0C3
:101A20001816190624F49C012F5F3F4F02C021E0D5
:101A300030E0240F351F112329F0412F50E04F5F74
:101A40005F4F02C040E050E0420F531F2B2D30E0AB
:101A50004217530714F4B41A01C0B12C2E2D28716B
:101A600059F4F6012B2D30E2222319F03193215045
:101A7000FBCFCB0CD11CB12CBB2331F0F601608322
:101A800096012F5F3F4F6901A1110BC0F6012B2D6D
:101A900030E3222319F031932150FBCFCB0CD11C22
:101AA000B12CF80E0A81372F3071A32E74FF03C0BA
:101AB000013309F4FA941F142CF42F2D293018F057
:101AC00028E001C021E0682F392F97FF02C060E0B5
:101AD00030E0462F532F612C712C3EE2932EBC0137
:101AE000621B71099B01DC01A41BB50BE1E0F0E076
:101AF000EC0FFD1FAE0FBF1FE12EF12CF194E1940E
:101B0000F1084F3FFFEF5F0731F4F6019082B60115
:101B10006F5F7F4F6B01841795074CF024173507D3
:101B200034F4BD01660D771DFB01118101C010E386
:101B300041505109FFEF6F1A7F0AB6016F5F7F4F67
:101B40004E155F0524F0F60110836B01DACF4817BC
:101B5000590739F4063320F4053319F4A11001C0F4
:101B600011E3F6011083FB018B2D90E2882319F01D
:101B700091938150FBCFFB01EB0DF11D108280E0B2
:101B800090E029960FB6F894DEBF0FBECDBFDF916F
:101B9000CF911F910F91FF90EF90DF90CF90BF906A
:101BA000AF909F907F906F900895283008F027E0C5
:101BB0003327DA01990F311D87FD91600096610589
:101BC000710539F432602E5F3D9330E32A95E1F7D9
:101BD00008959F3F30F080387105610509F03C5F42
:101BE0003C5F3D93913008F08068911DDF93CF9367
:101BF0001F930F93FF92EF92192F987F9695E92FDD
:101C000096959695E90FFF27EA52FF4F99273327BC
:101C1000EE24FF24A701E70105900894079428F417
:101C2000360FE71EF81E491F511D660F771F881FCC
:101C3000991F0694A1F70590079428F4E70EF81E63
:101C4000491F561FC11D770F881F991F661F0694D5
:101C5000A1F70590079428F4F80E491F561FC71FD7
:101C6000D11D880F991F661F771F0694A1F7059055
:101C7000079420F4490F561FC71FD81F990F661FDE
:101C8000771F881F0694A9F784911095177041F06B
:101C9000D695C79557954795F794E7941A95C1F748
:101CA000ECE7F0E068941590159135916591959168
:101CB00005907FE27395E118F10A430B560BC90BAF
:101CC000D009C0F7E10CF11E431F561FC91FD01DDC
:101CD0007EF4703311F48A95E6CFE894015030F029
:101CE000080F0AF40027021708F4202F2395022F6B
:101CF0007A3328F079E37D932A95E9F710C07D9334
:101D00002A9589F6069497956795379517951794B0
:101D1000E118F10A430B560BC90BD00998F0239533
:101D20007E9173957A3308F070E37C932013B8F7B3
:101D30007E9170617D9330F0839571E37D9370E3C4
:101D40002A95E1F71124EF90FF900F911F91CF9109
:101D5000DF91992787FD90950895DC01FC01672F9D
:101D600071917723E1F7329704C07C916D93708372
:0E1D70006291AE17BF07C8F30895F894FFCF35
:101D7E006320000D0A005469636B004D45415320EA
:0E1D8E004552524F520074656D703A002D00A0
:0400000300000838B9
:00000001FF
