:100000000C943E000C9418010C945B000C945B0063
:100010000C945B000C945B000C945B000C945B00F4
:100020000C945B000C945B000C945B000C945B00E4
:100030000C945B000C945B000C945B000C945B00D4
:100040000C945B000C945B000C945B000C945B00C4
:100050000C9416020C9491010C945B000C945B00C0
:100060000C945B000C945B000C945B000C945B00A4
:100070000C945B000C945B000C945B0011241FBE7D
:10008000CFEFD0E1DEBFCDBF11E0A0E0B1E0E4EC06
:10009000F5E002C005900D92AC31B107D9F721E02F
:1000A000ACE1B1E001C01D92A734B207E1F70E94B4
:1000B00049020C94E0020C94000052985A9AE9E626
:1000C000F0E0808183608083E89A0895ECE7F0E0B7
:1000D000808180648083EAE7F0E0808187688083A4
:1000E0000895EAE7F0E0808180648083089580913C
:1000F0007A00867009F496C080917800909179001A
:10010000893921E09207C8F5823921E0920708F089
:100110008CC08D379105D0F48637910508F06DC0FD
:100120008335910558F48C34910508F063C0C99764
:10013000079708F074C080E790E00895855591090D
:10014000079708F06CC08AE590E00895863F910516
:1001500060F48F3E910508F053C0825B91090697C9
:1001600008F05DC087E890E008958B5191400697B4
:1001700008F055C084EB90E00895853C22E092079A
:10018000D8F48C3B22E0920708F046C08D3522E07F
:10019000920758F4863522E09207A8F58C5C9140CE
:1001A0000797E8F58DE290E008958557924007970C
:1001B000B0F581EE90E00895813423E0920758F481
:1001C0008A3323E0920710F582519340059738F562
:1001D00080E090E00895853723E0920700F18C37A6
:1001E00023E09207B0F08F5A93400797C0F48EE057
:1001F00091E0089583E490E008958DE990E00895FA
:100200008AEC90E0089587EF90E0089584E291E011
:1002100008958BE391E0089581E591E008958EEFD4
:100220009FEF08958FEF9FEF089586E190E0089586
:100230001F920F920FB60F9211240F900FBE0F90C6
:100240001F90189590931D0180931C010895909321
:10025000C5008093C400E1ECF0E088E1808386E093
:100260008093C200808188698083089590911E01E7
:100270009F5F9170209120019217E1F3E92FF0E048
:10028000EF5DFE4F808390931E018091C1008062DC
:100290008093C1000895CF93DF93EC018991882367
:1002A00019F00E943601FACFDF91CF910895CF93D4
:1002B000DF93CDB7DEB761970FB6F894DEBF0FBE00
:1002C000CDBFAB01BE016F5F7F4F0E947302CE01B5
:1002D00001960E944B0161960FB6F894DEBF0FBEE7
:1002E000CDBFDF91CF910895CF93DF93CDB7DEB728
:1002F000A1970FB6F894DEBF0FBECDBF9A01AE0135
:100300004F5F5F4F0E948902CE0101960E944B0110
:10031000A1960FB6F894DEBF0FBECDBFDF91CF918F
:1003200008951F920F920FB60F9211248F939F93EF
:10033000EF93FF9390911E0180912001981779F01F
:10034000809120018F5F817080932001E0912001D6
:10035000F0E0EF5DFE4F80818093C60005C0809184
:10036000C1008F7D8093C100FF91EF919F918F918C
:100370000F900FBE0F901F901895909123018091C0
:100380002401981771F0809124018F5F8F71809301
:100390002401E0912401F0E0EB5DFE4F808190E0CC
:1003A00008958FEF9FEF08950F931F93CF93DF93DF
:1003B0008C0180911F01882389F0C02FD12F0E94CA
:1003C000BD01882311F08D3039F4188220911F016E
:1003D000215020931F0102C08993F1CFC801DF9102
:1003E000CF911F910F9108950F931F93CF93DF9398
:1003F0008C0180911F018823A1F0C0911C01D09134
:100400001D01209751F0C8010E94D401C801FE01CE
:10041000DF91CF911F910F910994809124018093D6
:100420002301DF91CF911F910F9108951F920F9299
:100430000FB60F9211248F939F93EF93FF938091A8
:10044000C600E0912301EF5FEF7190912401E91361
:1004500005C0809124018093230112C08A3081F06D
:100460008D3019F0811106C00BC090911F019F5F64
:1004700090931F01E0932301F0E0EB5DFE4F80833A
:10048000FF91EF919F918F910F900FBE0F901F9052
:10049000189587E790E00E9427010E9466007894F3
:1004A00080E091E00E944B010E9471000E94770061
:1004B0009093460180934501BC0180E090E04AE0C2
:1004C00050E00E94740189E191E00E944B010E947A
:1004D00071002FEF8FE19CE1215080409040E1F7C7
:1004E00000C00000E3CF4532510520F4423010F047
:1004F0000C947E02FB011082CB010895BB274A3089
:1005000031F4992322F4BDE2909581959F4F0C948C
:10051000B7022532310520F4223010F00C949402F9
:10052000FA011082CA010895BB27FA01A62F6217AB
:10053000710581059105330B30FB66F0AA27660F24
:10054000771F881F991FAA1FA21710F0A21B63957F
:100550003850A9F7A05DAA3308F0A95DA19336F73A
:10056000B111B1931082CA010C94D002BB27FB01D8
:100570005527AA27880F991FAA1FA41710F0A41B9C
:1005800083955051B9F7A05DAA3308F0A95DA193F6
:10059000009779F7B111B1931192CB010C94D0026D
:1005A000DC01FC01672F71917723E1F7329704C0DA
:1005B0007C916D9370836291AE17BF07C8F3089565
:0405C000F894FFCFDD
:1005C4002A2A2A2A2A2A2A205374617274202A2A5F
:0C05D4002A2A2A2A2A2A2A2A2A0D0A008A
:00000001FF
